:020000040800F2
:1000000018040020A1010008050D0008010D0008DA
:10001000030D00080D020008250E00080000000076
:100020000000000000000000000000008D0D00082E
:100030000F02000800000000070D00088F0D0008E7
:10004000BB010008BB010008BB010008BB010008A0
:10005000BB010008BB010008BB010008BB01000890
:10006000BB010008BB010008BB010008BB01000880
:10007000BB010008BB010008BB010008BB01000870
:10008000BB010008BB010008BB010008BB01000860
:10009000BB010008BB010008BB010008BB01000850
:1000A000BB010008BB010008BB010008BB01000840
:1000B000BB0100080000000000000000BB010008B8
:1000C000BB010008BB010008BB010008BB01000820
:1000D000BB010008BB010008BB010008BB01000810
:1000E000BB010008BB010008000000000000000088
:1000F0000000000000000000000000000000000000
:1001000000000000BB01000800000000BB01000867
:100110000000000000000000BB010008BB01000857
:10012000BB010008BB010008BB010008BB010008BF
:10013000BB010008000000000000000000000000FB
:10014000BB010008BB010008BB0100080000000063
:10015000BB010008BB010008BB010008BB0100088F
:10016000BB010008BB010008BB0100080000000043
:10017000BB010008BB0100080000000000000000F7
:10018000BB010008BB010008BB010008DFF80CD070
:1001900000F02AF8004800474D0E0008180400201F
:1001A0000648804706480047FEE7FEE7FEE7FEE711
:1001B000FEE7FEE7FEE7FEE7FEE7FEE7D90D0008F3
:1001C0008D010008D2B201E000F8012B491EFBD2DC
:1001D00070470022F6E710B513460A460446194652
:1001E000FFF7F0FF204610BD064C074D06E0E06823
:1001F00040F0010394E8070098471034AC42F6D36E
:10020000FFF7C8FF340F0008540F0008FEE77047DF
:10021000B0B5044600F0E0F805468D48611C406822
:1002200018BF044400F0D8F8401BA042FAD3B0BD78
:100230002DE9F84F5B4A4FF00709904200F1384230
:1002400008BF4FF004094FEAB223042B38BF4FEA2E
:10025000B2294FF0000B4FF0010A4FF0000C0022C2
:100260000D6835FA02F408BF00F0A6B80AFA02F4E5
:1002700015EA040800F089804F68122F00F28B8085
:100280000AFA07F515F0061F00F085800323D0F861
:1002900008E0CE6803FA0CF52EEA050306FA0CF620
:1002A00033438360C7F300134668934026EA04048F
:1002B00023436FEA050E55004360C3688E6803EA66
:1002C0000E03AE403343C36047F01003122B11D12D
:1002D0000BF01C030F2404FA03F66FF0030404EA86
:1002E000520707443C6AB4430E6906FA03F32343FA
:1002F0003B624F68036807F0030403EA0E03AC4057
:1003000023430360FB0040D5294B274E1C461B6846
:1003100022F0030543F0010323602368374603F00E
:10032000010300933544009E224E0BF00C030F2472
:10033000B646AE599C4026EA040409FA03F3234367
:1003400045F80E303B684D6843EA0804EE0358BF99
:1003500023EA08043C607B68AE0343EA080458BF04
:1003600023EA08047C60BB68EE0243EA080458BF35
:1003700023EA08040D4BBC601E461B68AD0243EA2D
:10038000080458BF23EA080434600BF1040B0CF195
:10039000020C013264E7032303FA0CF46FEA040E43
:1003A00065468AE700100048000401400C04014043
:1003B0006010024008FCFFFF18BCBDE8E08F4269F6
:1003C00028230A4208BF1823C15070471823002A67
:1003D00008BF2823C150704705480068704700BF18
:1003E0001B48034940680A6810440860704700BF12
:1003F0001000002080B5032000F060F8002000F01D
:1004000007F808B1012080BD00F024F8002080BD6D
:1004100070B50F4E04467068B0B14FF47A71B1FBFD
:10042000F0F096490968B1FBF0F000F055FC0125A9
:100430000F2C0AD848B94FF0FF3021460022002582
:1004400000F020F8346000E00125284670BD00BFB0
:100450000000002082B00A48816841F001018160FB
:10046000816801F0010101910199016841F0805119
:100470000160006800F080500090009802B0704762
:1004800058100240B0B5134B4FF0FF351B68C3F353
:100490000223DC1E83F0070338BF0024042B28BF8F
:1004A000042305FA03F3994305FA04F3A1409A43A0
:1004B0001143BDE8B04000F0B7BC00BF05494FF69E
:1004C000FF030A681A4060F30A22034810430860D9
:1004D000704700BF0CED00E00000FA051B49B0F5C5
:1004E000007F0A6802F4C0621DD1B2F5007F22D0FD
:1004F0000868012262F34A200860604832220068DE
:1005000050430E4AB0FBF2F00130421E4B6982426A
:1005100003D213F480601046F7D14869400544BF08
:100520000320704707E0B2F5806F04D0086802220C
:1005300062F34A2008600020704700BF40420F006D
:100540000248006800F4C060704700BF00700040BF
:100550002DE9F843002800F08880454B04461868D0
:10056000884600F0070088420AD2186820F0070089
:1005700040EA08001860186800F00700404574D190
:1005800020683C4EC10735D06068022806D0032899
:1005900009D156F8081C89010DD466E056F8081CEC
:1005A000890308D461E056F8081C10B1490502D44B
:1005B0005BE0890759D53168994621F0030108436A
:1005C00035463060FFF708FF064641F28837294676
:1005D0006068296801F00C01B1EB800F07D0FFF7CC
:1005E000FBFE801BB842F2D90320BDE8F8832068E7
:1005F0002E464B46810705D5A168326822F0F002ED
:1006000011433160196801F0070141450AD91968A1
:1006100021F0070141EA08011960196801F007019A
:10062000414522D1410705D5E168326822F4E062F4
:1006300011433160000706D52069316821F460510B
:1006400041EAC000306000F01DF831680A4AC1F389
:100650000311515C01F01F01C840084908600848B7
:100660000068BDE8F843FFF7D3BE0120BDE8F8837A
:100670000020024008100240F20E0008080000208E
:100680000000002010B524498A68C86812F00C02E6
:1006900005D00C2A20D100F0030001281CD10868E5
:1006A000000703D4D1F89400000A01E008680009AB
:1006B0001C4B00F00F0053F82030002A184618BFDA
:1006C00000200C2A21D1C86800F00300022809D0BC
:1006D000032808BF124B06E0042A17D0082A17D1B6
:1006E0000F4810BD0D4BC868CA68C9680224C1F321
:1006F0004161C2F30622C0F302105A430130B2FB3B
:10070000F0F004EB4101B0FBF1F010BD034810BD67
:1007100000200023D5E700BF001002400024F400B1
:1007200000127A00040F00082DE9F843002800F0B9
:100730003982D54E0446B06800F00C08F06800F02D
:1007400003092078C00628D42078C0075AD0B8F111
:10075000080F50D0B8F10C0F08BFB9F1030F4AD001
:100760006768B7F5803F07D03068B7F5A02F40F035
:10077000538240F480203060306840F48030306034
:10078000FFF72AFE0546306880033BD4FFF724FEBE
:10079000411B03206429F6D98AE2B8F1000F1BD06F
:1007A000B8F10C0F08BFB9F1010F15D03068A1697D
:1007B000002900F0338140F001003060FFF70CFEAB
:1007C00005463068800700F13A81FFF705FE411BBE
:1007D00003200229F5D96BE23068800703D5A069B0
:1007E000002800F0DF81206A3168090752D4D6F86A
:1007F000941009094FE03068800303D56068002831
:1008000000F0D081207880072BD5B8F1040F1AD0E2
:10081000B8F10C0F08BFB9F1020F14D03068E168CD
:10082000002900F0C28140F480703060FFF7D4FDF1
:100830000546306840050DD4FFF7CEFD411B03206F
:100840000229F6D934E23068400503D5E068002873
:1008500000F0A8812069716821F0F85141EA006038
:100860007060207800076FD5D6F894006169002980
:1008700058D040F00100C6F89400FFF7ADFD0546E2
:10088000D6F8940080075FD4FFF7A6FD401B02282E
:10089000F6D9C0E0316801F0F001884216D900F0C5
:1008A00033FA002840F07E81306840F00800306064
:1008B000D4E90701326822F0F00211433160716817
:1008C00021F47F4141EA0020706014E03168B8F102
:1008D000000F41F008013160316821F0F00141EA78
:1008E00000013160E169726822F47F4242EA01212D
:1008F000716000F05281FFF7C5FEB168DFF8BC23DC
:10090000C1F30311515C01F01F01C840DFF8B013BF
:100910000860DFF8B0030068FFF77AFD002840F0B8
:10092000C78111E720F00100C6F89400FFF754FDDD
:100930000546D6F89400800706D5FFF74DFD411B0C
:1009400003200229F5D9B3E1207840071CD4207890
:10095000800640F19B80D6F89800616A002900F07B
:10096000808040F00100C6F89800FFF735FD05468D
:10097000D6F89800800700F18980FFF72DFD411B14
:1009800003200229F4D993E1B06DC0000BD4B06DFF
:100990004FF0010940F08050B065B06D00F080501C
:1009A0000090009801E04FF00009C74F3868C0057B
:1009B00010D4386840F480703860FFF70DFD0546AC
:1009C0003868C00506D4FFF707FD411B0320022944
:1009D000F6D96DE1A768012F08D0D6F89000052F51
:1009E00040F0F48040F00400C6F89000D6F8900083
:1009F00040F00100C6F89000FFF7EEFC054641F21A
:100A00008837D6F89000800700F1FD80FFF7E4FCFE
:100A1000401BB842F5D90320BDE8F88320F001005F
:100A20003060FFF7D9FC0546306880077FF58CAE53
:100A3000FFF7D2FC411B03200229F5D938E13068C9
:100A400040F008003060D4E90701326822F0F0027B
:100A500011433160716821F47F4141EA00207060E8
:100A600072E620F00100C6F89800FFF7B5FC0546D5
:100A7000D6F89800800709D5FFF7AEFC411B03208C
:100A80000229F5D914E100BF00100240A06A002835
:100A900000F01081022849D1E16AF06800F00302F9
:100AA0008A4263D1216B6FF00F0202EB011100F05B
:100AB00070028A425AD1616B00F4FE42B2EB012F00
:100AC00054D1A16B00F07842B2EBC16F4ED1E16B13
:100AD0007E4A02EA0151A1F5001100F4C0028A42E7
:100AE00044D1216C4FF07E4202EA016101F17E4166
:100AF00000F0C060884239D13068800100F1DA80AE
:100B0000306840F080703060F06840F08070F060D5
:100B1000FFF762FC04463068800100F1CB80FFF7EC
:100B20005BFC011B03200229F5D9C1E0B8F10C0FD1
:100B300038D0306820F0807030603068000103D415
:100B4000F06820F00300F060F06862490840F0604F
:100B5000FFF742FC04463068800140F1AB80FFF7AC
:100B60003BFC011B03200329F5D3A1E0B8F10C0FD6
:100B700018D03068400115D4306820F080703060A3
:100B8000FFF72AFC0546306880015DD5FFF724FC9D
:100B9000411B03200229F6D98AE000F0B5F80028AD
:100BA0003FF4A9AE0120BDE8F88320F480703060E6
:100BB000FFF712FC0546306840057FF552AEFFF79F
:100BC0000BFC411B03200229F5D971E020F0010044
:100BD000C6F89000D6F8900020F00400C6F8900007
:100BE000FFF7FAFB0546002F7FF409AF41F2883783
:100BF000D6F89000800706D5FFF7EEFB411B0320D7
:100C0000B942F5D954E0B9F1000F3FF4A0AEB06D90
:100C100020F08050B0659AE620F480303060306873
:100C200020F480203060FFF7D7FB0546002F7FF4CB
:100C3000AAAD05E0FFF7D0FB411B0320642937D89C
:100C400030688003F6D4DDE504F12C030FCB6FF0A0
:100C50000F0505EB0111F5681D4F3D402843084382
:100C600040EA0220E16B194A02EA0151A1F50011A4
:100C70000843216C4FF07E4202EA016140EAC36002
:100C800001F17E410843F060306840F080703060D0
:100C9000F06840F08070F060FFF79EFB044630681B
:100CA000800107D4FFF798FB011B03200229F6D926
:100CB000BDE8F8830020BDE8F88300BFF20E00080D
:100CC0000800002000000020007000400000E0FF4D
:100CD0008C809D01FFFFEEFE411E0020B0EB116FE6
:100CE0001CBF01207047044AF023516003490B7078
:100CF000072190601160704710E000E023ED00E0F4
:100D0000FEE7FEE770477047BCB51E4D04462868F5
:100D1000C0000FD4286840F080502860286800F098
:100D2000805001900198FFF70BFC296821F0805159
:100D3000296001E0FFF704FCB0F5007F06D1812CAB
:100D400008D30120A02C88BF02200DE0802C03D9FD
:100D5000032009E0002007E0A4F17000B0FA80F061
:100D60004009802C08BF022007490A6822F00702C8
:100D700002440A60096801F00701081A18BF01203F
:100D8000BCBD00BF58100240002002407047FFF772
:100D900027BBB0B596B005AC04F108003C21FFF7C5
:100DA00018FA00254FF480300F9506900120059029
:100DB0002046FFF7B9FC02200495CDE902550190C9
:100DC0000F20009068460021FFF7C2FB4FF400702F
:100DD000FFF784FB16B0B0BD10B50F48104CD0F82B
:100DE000801041F47001C0F880100C490A6842F08C
:100DF00001020A6000228A600B6823400B604FF4F6
:100E00008053CB600B6823F480230B608A614FF022
:100E10000061016010BD00BF08ED00E0001002405D
:100E2000FFFFF6EAFEE7000010B5074C00F00F03E5
:100E30002344044AB0F1FF3FC8BF8318080118706B
:100E400010BD00BF00E400E014ED00E086B0FFF745
:100E5000D1FAFFF79EFF00251C48059501681C4C40
:100E600041F0040101600168002201F004010091D9
:100E7000009901684FF4005641F08001016001685B
:100E800001F0800100910099016841F001010160C9
:100E900000684FF4005100F00100009000982046D7
:100EA000FFF794FA0120CDE90355CDE9016001A9CE
:100EB0002046FFF7BDF94FF4FA70FFF7A9F9204675
:100EC0004FF40051FFF77BFAF5E700BF4C100240EA
:100ED0000008004802E008C8121F08C1002AFAD121
:100EE00070477047002001E001C1121F002AFBD1AA
:100EF0007047000000000000000001020304060724
:100F000008090000A0860100400D0300801A0600B9
:100F100000350C0040420F0080841E0000093D0097
:100F200000127A000024F40000366E010048E80147
:100F3000006CDC02580F00080000002010000000C8
:100F4000D40E0008680F00081000002008040000FC
:100F5000E40E000800000000100000000100000086
:080F600000093D000000000043
:040000050800018D61
:00000001FF
