:020000040800F2
:1000000078040020A1010008631600086D1500089F
:10001000611600080D020008D11800080000000059
:10002000000000000000000000000000111800089F
:100030000F020008000000006516000813180008F1
:10004000BB010008BB010008BB010008BB010008A0
:10005000BB010008BB010008BB010008BB01000890
:10006000BB010008BB010008BB010008BB01000880
:10007000BB010008BB010008BB010008BB01000870
:10008000BB010008BB010008BB010008BB01000860
:10009000BB010008BB010008BB010008BB01000850
:1000A000BB010008BB010008BB010008BB01000840
:1000B000BB0100080000000000000000BB010008B8
:1000C000BB010008BB010008BB010008BB01000820
:1000D000BB010008BB010008BB010008BB01000810
:1000E000BB010008BB010008000000000000000088
:1000F0000000000000000000000000000000000000
:1001000000000000BB01000800000000BB01000867
:100110000000000000000000BB010008BB01000857
:10012000BB010008BB010008BB010008BB010008BF
:10013000BB010008000000000000000000000000FB
:10014000BB010008BB010008BB0100080000000063
:10015000BB010008BB010008BB010008BB0100088F
:10016000BB010008BB010008BB0100080000000043
:10017000BB010008BB0100080000000000000000F7
:10018000BB010008BB010008BB010008DFF80CD070
:1001900000F02AF8004800471119000878040020F0
:1001A0000648804706480047FEE7FEE7FEE7FEE711
:1001B000FEE7FEE7FEE7FEE7FEE7FEE78D18000834
:1001C0008D010008D2B201E000F8012B491EFBD2DC
:1001D00070470022F6E710B513460A460446194652
:1001E000FFF7F0FF204610BD064C074D06E0E06823
:1001F00040F0010394E8070098471034AC42F6D36E
:10020000FFF7C8FF6419000884190008FEE770476B
:10021000704700002DE9F84F00270446009790F83A
:100220005000DFF8B0930D46B846012811D00126E2
:1002300084F85060206801F0A4F960B1606D40F06E
:10024000200060655FF0010784F85080384600F0B8
:10025000D7B90220FBE768680C23052812D80228CA
:1002600007D0032807D0042807D0052807D0062088
:1002700007E06B6006E0122003E0182001E04FF475
:1002800080706860D5E90021206803EA9113184462
:10029000036B01F01F014FF01F0C0CFA01FCC2F3BD
:1002A000846223EA0C038A4013430363206801F04D
:1002B00068F98246206801F060F95AEA00001DD111
:1002C000AA682968206801F060F920686969C26835
:1002D000C2F3C102520091402A69042A0FD000EBF8
:1002E00082002B68026EDFF8F0C203F0F84302EAE6
:1002F0000C020B431A4342F00041016672E00021F8
:1003000001F035F9400320684FF0000172D001F090
:100310002EF990FAA0F0B0FA80F1286842036ED06E
:1003200090FAA0F0B0FA80F0814204D10022114688
:10033000206801F039F90121206801F018F9400323
:1003400020684FF001015DD001F011F990FAA0F0A2
:10035000B0FA80F12868420359D090FAA0F0B0FAC0
:1003600080F0814204D100220121206801F01CF9B3
:100370000221206801F0FBF8400320684FF00201E1
:1003800048D001F0F4F890FAA0F0B0FA80F12868B3
:10039000420344D090FAA0F0B0FA80F0814204D138
:1003A00000220221206801F0FFF80321206801F0FB
:1003B000DEF8400320684FF0030133D001F0D7F896
:1003C00090FAA0F0B0FA80F1286842032FD090FA9A
:1003D000A0F0B0FA80F0814204D10022032120680D
:1003E00001F0E2F82068816811F0010F22D0ACE042
:1003F00000E004E001F0BBF8C0F384618DE7C0F3D6
:10040000846091E701F0B3F8C0F38461A2E7C0F320
:100410008460A6E701F0ABF8C0F38461B7E7C0F3EE
:100420008460BBE701F0A3F8C0F38461CCE7C0F3BC
:100430008460D0E72A7B296850F8B03FC1F3120CE2
:1004400023EA0C0302F0180C644A22FA0CF20A4068
:1004500013430360E968494577D1286841031CD0FC
:1004600090FAA0F1B1FA81F1491C01F01F010929AC
:100470004FEA403132D8002912D000BF90FAA0F1E3
:10048000B1FA81F101F1010101F01F0106FA01F653
:1004900009D100BFC0F3846109E0C0F38461E3E7E0
:1004A000C0F38461EEE790FAA0F1B1FA81F101F1B5
:1004B000010101F01F0146EA816102D1C0F38460AD
:1004C00003E090FAA0F0B0FA80F000F1010000F033
:1004D0001F0000EB400041EA005132E000290ED03D
:1004E00090FAA0F1B1FA81F101F1010101F01F01CF
:1004F00006FA01F606D100BFC0F3846106E0C0F33E
:100500008461F1E790FAA0F1B1FA81F101F1010102
:1005100001F01F0146EA816102D1C0F3846003E06B
:1005200090FAA0F0B0FA80F000F1010000F01F0096
:100530002B4A00EB400002EB005041EA000141F081
:100540000071AA68206801F020F826482A68024253
:100550003FF47AAE24488168244D254B01F0E071C8
:10056000AA421AD10D0218D422689A427FF46CAEC6
:10057000826841F4000122F0E0720A4382601D4863
:100580001D490068B0FBF1F000EB4000800000E086
:10059000401E00900028FBD156E6184DAA4207D114
:1005A000CD0105D422689A42F6D141F080710AE06B
:1005B0006FF00045EA42EFD14A02EDD422689A4238
:1005C000EAD141F48001826822F0E0720A4382603D
:1005D0003AE6000000007F4000F0FF03FFFF070045
:1005E000000020FE0000088000030450000052C7F5
:1005F000000004500C000020400D0300000084CBDC
:1006000018BCBDE8E08F0000F8B54FF0000504000D
:100610002E46009502D0606D10B107E00120F8BDB4
:10062000204600F0C7F8A66584F85060206881680D
:10063000C1F3407119B18168564A11408160206848
:100640008168C1F3007179B98168534A114041F062
:1006500080518160514852490068B0FBF1F000E0E0
:10066000401E00900028FBD120688168C1F3007112
:1006700041B9616D41F010016165A16D41F0010169
:10068000A165012500F07DFF616DC90600D430B180
:10069000606D40F01000606501252846F8BD606D72
:1006A00020F4807040F0020060652068806810F0DF
:1006B000010F0BD13B48806810F0010F06D13A487A
:1006C0006168826822F47C120A438260E168606B90
:1006D000627E0843A16841EA4231084394F8201041
:1006E00040EA0140012904D1A18C304A02EB41418A
:1006F0000843A16A29B101F47071E26A014342EA38
:1007000001002168CA682A4B1A400243CA60206867
:1007100000F037FF0646206800F02FFF304315D168
:10072000207E94F83010800340EA41022068C168BE
:1007300044F2020399431143C16094F83800012840
:100740000CD02068016921F00101016120690128B4
:100750002068016B21F00F0111D013E0D4E90F01E3
:100760000843D4E911121143084321680A6940F291
:10077000FC739A43104340F001000861E6E7E26928
:10078000521E11430163606D20F0020040F0010031
:10079000606582E7C0FFFF5FC0FFFF7F0C000020A5
:1007A000400D030000000450000304500000FEFF51
:1007B00007C0F0FF10B586B0044614216846FFF765
:1007C00008FD1149206888421BD11048C16C41F4D2
:1007D0000051C164C16C01F400510591C16C41F03C
:1007E0000101C164C06C694600F00100059003205E
:1007F00000900B200190002002904FF0904000F0FC
:1008000007F806B010BD00000000045000100240C0
:100810002DE9FC4FDFF894A1002301250AF1040B18
:1008200003244FF00F0C0BF1040EB8E005FA03F6A9
:1008300032406FD04F68012F05D0022F03D0112F07
:1008400001D0122F17D1D0F808905F0004FA07F8F2
:1008500029EA08090097D1F80C8008FA07F848EA55
:100860000908C0F808804768B7430E79C6F3001638
:100870009E403E434660C6684FEA430804FA08F7C4
:10088000BE4301978F6807FA08F73743C7604E6881
:10089000022E01D0122E13D1DE0800EB8606009640
:1008A000366A5F07FF0E0CFA07F926EA0906D1F847
:1008B000109009FA07F949EA0609009EC6F8209047
:1008C0000668019FBE430F7907F0030707FA08F790
:1008D000374307604E68F60060D5354E376E47F0F7
:1008E00001073766366E23F0030706F0010600960F
:1008F000304E3E44B146B6689F074FEA17780CFA6F
:1009000008F7BE43B0F1904F05D02B4FB84204D149
:10091000012712E042E000270FE0284FB84201D142
:1009200002270AE0264FB84201D1032705E0254FF0
:10093000B84201D1042700E0072707FA08F7374338
:10094000C9F80870DAF800605746D1F80480964379
:100950005FEAC83800D516433E60DBF800605F46AA
:10096000D1F8048096435FEA883800D516433E608C
:10097000DEF800607746D1F8048096435FEAC82825
:1009800000D516433E60094F0C373E68D1F804800D
:1009900096435FEA882800D516433E605B1C0A68D0
:1009A00032FA03F67FF442AF00F00EB800040140C3
:1009B0000010024000000140000400480008004808
:1009C000000C0048001000481CBCBDE8E08F00008F
:1009D00001488068704700000000002002488168DC
:1009E00042681144816070470000002010B5002467
:1009F000032000F063F8002000F008F808B101249B
:100A000001E000F025F8204610BD000070B50E4E44
:100A100005460024706898B14FF47A71B1FBF0F08C
:100A20000A490968B1FBF0F000F08CFD40B9102DC7
:100A300006D200222946501E00F020F8356000E062
:100A40000124204670BD0000000000200C000020A2
:100A5000094808B5016E41F001010166016E01F01F
:100A600001010091816D41F080518165806D00F040
:100A70008050009008BD000000100240F0B40E4B02
:100A80001B680C46C3F30223C3F10705042D00D9EC
:100A90000425191D072901D2002300E0DB1E0126D1
:100AA00006FA05F1491E214099409E40761E1640E7
:100AB0003143F0BC00F00DBF0CED00E0064900F042
:100AC000070208684FF6FF03184040EA0220034A75
:100AD00010430860704700000CED00E00000FA05CC
:100AE0001649B0F5007F0868C0F3412009D00228FC
:100AF00005D0086820F4C06040F4806008600020E1
:100B000070470128FBD0086820F4C06040F40070F2
:100B100008600B483222006850430A4AB0FBF2F0EA
:100B2000401C00E0401E4A69520501D50028F9D159
:100B300048694005E3D5032070470000007000407D
:100B40000C00002040420F000248006800F4C06022
:100B500070470000007000402DE9F84F0446002760
:100B60000088A84D3E46000515D5606C60B1B0F513
:100B7000000F04D0B0F5400F2BD001270AE0E86841
:100B800040F48030E86024E00021201D00F06CFD7E
:100B900007001ED03E46206880033AD5A86D4FF06E
:100BA0000008C00009D4A86D40F08050A865A86D69
:100BB0004FF0010800F080500090DFF84CA2DAF806
:100BC000001041F48071CAF80010FFF701FF814660
:100BD00010E0D5F88800616C20F440000843C5F8A7
:100BE0008800D8E7FFF7F4FEA0EB0900022801D93E
:100BF000032705E0DAF80000C005F3D5002F7DD00B
:100C00004FEA0706B8F1000F03D0A86D20F080501E
:100C1000A8652078C00707D0D5F88800216A20F0A1
:100C200003000843C5F888002078800707D5D5F869
:100C30008800616A20F00C000843C5F8880020781D
:100C4000400707D5D5F88800A16A20F03000084396
:100C5000C5F888002078800607D5D5F88800E16AB5
:100C600020F440600843C5F888002088800507D537
:100C7000D5F88800E16B20F440200843C5F88800CF
:100C80002088400507D5D5F88800216C20F4401055
:100C90000843C5F888002078400607D5D5F88800B5
:100CA000216B20F440500843C5F8880020780006E6
:100CB00007D5D5F88800616B20F440400843C5F89B
:100CC00088002088C00507D5D5F88800A16B20F4DE
:100CD00040300843C5F8880020684FF000670003E3
:100CE0004FF0806850D5D5F88800A16C20F04060A6
:100CF0000843C5F88800A06CB84200E005E03BD18D
:100D0000E86840F48010E8603EE0D5F8900010F408
:100D1000407014D0A16D814211D0D5F89000D5F863
:100D2000901020F4407041F48031C5F89010D5F84F
:100D3000901021F48031C5F89010C5F89000C007DC
:100D400011D0FFF745FE074641F2883907E000BFA2
:100D5000FFF73EFEC11B494501D9032652E7D5F8EE
:100D600090008007F4D5D5F89000A16D20F4407074
:100D70000843C5F8900045E7404505D10121201DF5
:100D800000F072FC00B106462068400317D5D5F884
:100D90008800E16C20F040600843C5F88800E06CF2
:100DA000B84204D1E86840F48010E86007E04045AC
:100DB00005D10121201D00F057FC00B10646208816
:100DC000400411D5D5F88800216D20F0405008432B
:100DD000C5F88800206DB0F1805F05D10221201D8B
:100DE00000F042FC00B106462088000406D555F804
:100DF000880F616D20F0804008432860304600F085
:100E000005B80000001002400070004018BCBDE8AA
:100E1000E08F00002DE9F0470F46050058D0404E06
:100E2000306800F00700B84209D2306820F00700AF
:100E300038433060306800F00700B84248D1287865
:100E4000384CC0072CD06868032811D0022812D073
:100E5000216898B1490500293ADAA16821F0030117
:100E60000143A160FFF7B4FD804641F2883910E0EC
:100E700021688901EFE721688903ECE78907EAE740
:100E8000FFF7A6FDA0EB0801494502D90320BDE804
:100E9000F087A068696800F00C00B0EB810FEFD11B
:100EA0002878800705D5A068A96820F0F0000843DD
:100EB000A060306800F00700B8420BD9306820F01D
:100EC000070038433060306800F00700B84201D0B6
:100ED0000120DCE72878400705D5A068E96820F400
:100EE000E0600843A0602878000706D5A06829695B
:100EF00020F4605040EAC100A06000F01BF8A16837
:100F0000094AC1F30311515C01F01F01C8400749B0
:100F1000086007480068BDE8F047FFF777BD0000AC
:100F20000020024000100240241900080C0000209C
:100F30000000002070B52549002318468A68CC6857
:100F400012F00C0204F00306214C4FEA640509D0AC
:100F50000C2A05D0042A32D0082A00D1284670BDB8
:100F6000012E10D10B681B0704D4D1F89430C3F3C1
:100F7000032302E00B68C3F30313164E56F8233025
:100F8000DAB10C2AEBD1C86800F00300022818D0AF
:100F9000032818D01846CA68CB68C2F30212C3F3FC
:100FA00006234343521CB3FBF2F2C868C0F341600E
:100FB000401C4000B2FBF0F070BD184670BD2046EA
:100FC00070BD2046E7E72846E5E700000010024034
:100FD0000024F400341900082DE9F84304006FD010
:100FE000FE4DA86800F00C06E86800F003072078C2
:100FF000C00664D576B10C2E01D1012F0AD0A069AC
:10100000002828687AD040F001002860FFF7E0FC53
:1010100080465DE02868800702D5A0690028DED000
:10102000216A2868000703D5286800F0F00004E072
:10103000D5F89400F02202EA1010814216D9084631
:1010400000F0A8FB00283BD1286840F00800286089
:101050002868216A20F0F000084328606868E16988
:1010600020F47F4040EA0120686016E0286840F0E4
:10107000080028602868216A20F0F00008432860F2
:101080006868E16920F47F4040EA0120686026B981
:10109000206A00F07FFB0028D5D1FFF74BFFA9683D
:1010A000CF4AC1F30311515C01F01F01C840CD4983
:1010B0000860CD480068FFF7A9FC00287ED12EE02B
:1010C000CAE000BFFFF784FCA0EB0800022876D836
:1010D00028688007F6D5286840F00800286028684E
:1010E000216A20F0F000084328606868E16920F474
:1010F0007F4040EA0120686011E0FFE720F0010036
:101100002860FFF765FC804606E000BFFFF760FC43
:10111000A0EB08000228DAD828688007F6D42078E7
:10112000C00740D0082E18D00C2E01D1032F14D0A8
:101130006068B0F5803F17D0B0F5A02F286817D0B1
:1011400020F480302860286820F4802028606068BF
:10115000E0B1FFF73DFC804614E02868800322D50B
:101160006068002878D01EE0286840F48030EDE701
:1011700040F480202860F7E7FFF72AFCA0EB080086
:101180006428A4D828688003F6D50CE0FFF720FC7B
:10119000804605E0FFF71CFCA0EB0800642896D809
:1011A00028688003F6D4207880073BD5042E11D020
:1011B0000C2E01D1022F0DD0E06801E0B6E1FFE076
:1011C000002828681ED040F480702860FFF700FCDB
:1011D00007460CE0286840050CD5E0680028C1D01F
:1011E00008E000BFFFF7F4FBC01B022893D8286873
:1011F0004005F7D56868217C20F0F85040EA01608E
:1012000068600FE020F480702860FFF7E1FB07467C
:1012100005E000BFFFF7DCFBC01B0228B1D828683F
:101220004005F7D42078000729D560690028D5F853
:10123000940012D040F00100C5F89400FFF7C8FBFD
:10124000074604E0FFF7C4FBC01B022899D8D5F875
:1012500094008007F6D512E02BE120F00100C5F8DC
:101260009400FFF7B5FB074605E000BFFFF7B0FBB2
:10127000C01B022885D8D5F894008007F6D42078C2
:10128000400766D5A86D0027C00008D4A86D40F0BF
:101290008050A865A86D012700F080500090534849
:1012A0000168C90512D40168814641F4807101606A
:1012B000FFF78EFB804605E0FFF78AFBA0EB0800F6
:1012C00002287DD8D9F80000C005F5D5A06801280E
:1012D00016D00528D5F8900017D020F00100C5F8E9
:1012E0009000D5F8900020F0040000BFC5F89000F1
:1012F000A06841F28839C0B1FFF76AFB80460FE071
:10130000D5F8900040F00100F0E740F00400C5F887
:101310009000F5E7FFF75CFBA0EB080149454FD8CB
:10132000D5F890008007F5D50EE0FFF751FB804619
:1013300006E000BFFFF74CFBA0EB080149453FD892
:10134000D5F890008007F5D41FB1A86D20F080502B
:10135000A8652078800628D5606A0028D5F898000E
:1013600012D040F00100C5F89800FFF731FB0746A6
:1013700005E000BFFFF72CFBC01B022820D8D5F8E2
:1013800098008007F6D510E020F00100C5F898001D
:10139000FFF71EFB074604E0FFF71AFBC01B0228FD
:1013A0000ED8D5F898008007F6D4A06AA8B1022814
:1013B00024D00C2E7DD0286820F08070286000E0BA
:1013C000B3E02868000103D4E86820F00300E86077
:1013D000E86807490840E8600CE09FE00010024020
:1013E000241900080C0000200000002000700040BC
:1013F000FFFFEEFEFFF7ECFA044699E0E868E26AC8
:1014000000F00301914226D1216B00F07002090126
:10141000103991421FD1626B00F4FE41B1EB022FF3
:1014200019D194F8382000F07841B1EBC26F12D195
:10143000A18F00F4C00249084905A1F500119142AD
:1014400009D194F8401000F0C06049084906A1F1A4
:10145000007181424BD00C2E6FD0286840016CD4B3
:10146000286820F080702860FFF7B2FA064604E092
:10147000FFF7AEFA801B022857D828688001F7D4FE
:10148000F4E90B016FF00F0202EB01110843218A0E
:101490005204490802EB4151A26841EA0221084383
:1014A000217D4FF07E42490802EB41610843217BD8
:1014B00000E042E040EAC160E968214A1140084387
:1014C000E860286840F080702860E86840F080702C
:1014D000E860FFF77DFA044605E000BFFFF778FA01
:1014E000001B022821D828688001F7D523E028684E
:1014F000800120D4286840F080702860E86840F0BF
:101500008070E860FFF764FA044604E0FFF760FAD1
:10151000001B022809D828688001F7D50BE000BF1E
:10152000FFF756FA001B022802D90320BDE8F88312
:1015300028688001F4D40020F8E70120F6E70000D5
:101540008C809D0110B5401EB0F1807F01D3012039
:1015500010BD4FF0E02460610F21601700F0B9F971
:101560000020A06107202061002010BDFEE700EBF5
:101570008100006E00F0F84070478068C0F3C00042
:1015800070478068C0F380007047042303EAD1539A
:1015900010B518444369C1F3045107248C40A34398
:1015A0008A401343436110BD00EB8100016E21F0BE
:1015B000004111430166704730B587B01821684675
:1015C000FEF707FE184817490024C0E9001484609C
:1015D0000425C460C0E90445047644760121C16154
:1015E00080F82040C0E90914C46280F830404463A8
:1015F00080F83840FFF708F808B1FEF709FE0B48FD
:1016000000900620CDE9010409480594CDE90305C1
:1016100069460548FEF7FEFD002801D0FEF7F8FDFB
:1016200007B030BD00000450100000202000F0146E
:1016300000007F40094808B5C16C41F08001C164D9
:10164000C16C01F080010091C16C41F00101C164E5
:10165000C06C00F00100009008BD000000100240C6
:10166000FEE77047704700002DE9F041444C054605
:101670008846E0680026810728680DD0E16801F0FF
:101680000301814216D1A8B1E0686968C0F3021075
:10169000401C88420ED120E0012804D0022805D049
:1016A000032807D108E02168890701E0216849057E
:1016B000002907DB01265FE02168890302D4216845
:1016C0004903F5E7E1686A686FF00F0321F07301E1
:1016D00003EB021211430143E160206820F08060B7
:1016E0002060FFF775F9074605E000BFFFF770F9C6
:1016F000C01B022837D820680001F7D4B8F1000FCA
:1017000018D0B8F1010F1DD0287D4FF07E41400860
:1017100001EB4060A96840EA01202169194A1140A3
:1017200008432061206840F080602060FFF750F996
:1017300007461AE0A868297B000240EAC1602169D7
:10174000114AECE7288A1149400801EB4050A9688A
:1017500040EA012021690E4AE1E700BFFFF738F9AE
:10176000C01B022801D9032606E020680001F5D538
:101770002069A969084320613046BDE8F081000076
:1017800000100240FF80FFF9FF80FF070000E0FF2C
:10179000FF809FFFF8B51C4D06460024A86DC000D1
:1017A00002D5FFF7D1F90DE0A86D40F08050A86593
:1017B000A86D00F080500090FFF7C6F9A96D21F0E8
:1017C0008051A965B0F5007F04D0802E07D94FF075
:1017D00003040AE0802E08D9A02E01D804E001D12C
:1017E000022402E0702E00D101240848016821F093
:1017F000070121430160006800F00700A04201D00A
:101800000120F8BD0020F8BD001002400020024079
:101810007047FFF7E3B870B5AEB0442117A8FEF7E4
:10182000D8FC142128A8FEF7D4FC5C216846FEF7FA
:10183000D0FC00246020CDE91E401026012517961B
:101840001D9517A82194FFF7C7FB0F20CDE92804A9
:101850002A942B94002128A82C94FFF7DBFAA803E4
:10186000009080031490019502950720CDE9036054
:10187000022005900690C00507906846FFF76CF9B6
:101880006802FFF72DF92EB070BD00000D48016809
:1018900041F4700101600C48016841F001010160F0
:1018A000002181600268094B1A4002608214C26004
:1018B000026822F48022026081610249C0038039FB
:1018C0000860704788ED00E000100240FFFFF6EA74
:1018D000FEE70907090E002804DB00F1E02080F88C
:1018E0000014704700F00F0000F1E02080F8141D94
:1018F000704702E008C8121F08C1002AFAD17047D9
:101900007047002001E001C1121F002AFBD170477F
:10191000FFF76CF8FFF77FFFFFF78CFEFFF74CFE39
:10192000FEE70000000000000000000001020304C8
:1019300006070809A0860100400D0300801A060072
:1019400000350C0040420F0080841E0000093D005D
:1019500000127A000024F40000366E010048E8010D
:10196000006CDC0284190008000000201000000058
:10197000F218000894190008100000206804000004
:101980000219000810000000010000000000000023
:0419900000093D000D
:040000050800018D61
:00000001FF
